:100000000010002029180000251800002518000005
:1000100025180000251800002518000025180000EC
:1000200025180000251800002518000025180000DC
:1000300025180000251800002518000025180000CC
:1000400025180000251800002518000025180000BC
:1000500025180000251800002518000025180000AC
:1000600025180000251800008D52000025180000FA
:10007000251800002518000025180000251800008C
:10008000251800002518000025180000251800007C
:10009000251800000D240000251800002518000078
:1000A000251800002D2500000D2500002518000052
:1000B000251800002518000025180000251800004C
:1000C000251800002518000025180000251800003C
:1000D000251800002518000025180000251800002C
:1000E000251800002518000025180000251800001C
:1000F000251800002518000025180000251800000C
:1001000025180000251800002518000025180000FB
:1001100025180000251800002518000025180000EB
:1001200025180000251800002518000025180000DB
:100130002518000010B5054C237833B9044B13B1D2
:10014000044800E000BF0123237010BD3C170020CD
:10015000000000006C6C000008B5034B1BB10349A4
:10016000034800E000BF08BD000000004017002069
:100170006C6C0000A3F5803A704700BF174B002B52
:1001800008BF134B9D46FFF7F5FF00218B460F4636
:100190001348144A121A05F0BCFA0E4B002B00D07B
:1001A00098470D4B002B00D09847002000210400F9
:1001B0000D000D48002802D00C4800E000BF05F0FB
:1001C00077FA2000290000F011FB05F05DFA00BF6E
:1001D00000000800000000000000000000100020E7
:1001E0003C170020BC1E00200000000000000000A2
:1001F0004FF4805300B58BB0ADF812304FF480034C
:10020000059300238DF818304FF4E133094A01A912
:10021000CDE90123084B039302238DF81030074BDF
:100220000893074B0993074B186802F01DFC0BB0AD
:100230005DF804FB000006500202020304100020D7
:10024000841000200010002007B5019005F092FAFC
:100250000246044B0199186803B05DF804EB02F004
:1002600061BD00BF0010002084B030B585B009AC7E
:1002700084E80E000DF1790303930DF16A030B4D31
:1002800002930B490DF15B03019313AB51F820105E
:100290002246009328460EAB05F044FA2846FFF7A5
:1002A000D3FF05B0BDE8304004B0704719180020F6
:1002B0007863000084B038B505AC84E80E00084DC2
:1002C0000849224651F820100DF12303284605F075
:1002D00029FA2846FFF7B8FFBDE8384004B0704758
:1002E00019180020786300000C22044B9A705A7091
:1002F0001A701868197900F095BE00BF2A1A0020FC
:1003000005232DE9F041B24AB24C1370B24A98B0BD
:100310001370637A052B74D1B04E6379B04D33708E
:10032000A3792A787370E379AE49B370237AAE4C1F
:10033000F370204605F0F6F92A78AA4904F1140072
:1003400005F0F0F92A78A74904F1280005F0EAF948
:100350002A78A44904F1370005F0E4F93268A1498C
:1003600004F1460005F0DEF92A789E4904F15500B3
:1003700005F0D8F900239D4D84F84D3028469C495E
:1003800005F0F0F9326805F10F00964905F0CAF959
:10039000EC46D5F800806A68AB6805F10C072C358F
:1003A000E646386879680837AEE80300AF42F4469D
:1003B000F6D1397808208EF800104146FFF77AFF11
:1003C0004FF42F7004F008FEA36827686568582270
:1003D00088496846179305F08FF939462A46052063
:1003E000179BFFF741FF32688349844805F09AF96B
:1003F00002233021814A002018B0BDE8F04101F00D
:10040000BBB8062B36D17E4D63797E492B70A3791C
:100410007D486B70E3796F46AB70237A734CEB7059
:100420002A6805F07FF900226F4B2046DA7677497B
:1004300005F098F92A6804F10F006A4905F072F98D
:1004400004F10C06D4F800E06268A3682C34BC46C2
:10045000306871680836ACE80300A6426746F6D1FA
:10046000317808208CF800107146FFF723FF2A68C6
:100470006749BAE70A2B38D1664D6379664A2B7013
:10048000A37912686B70E3796449AB70237A564C98
:10049000EB7020462B6805F045F900236F46E371A9
:1004A000524C5F49204605F05DF92A6804F10F00BF
:1004B0004C4905F037F904F10C06D4F800E0626805
:1004C000A3682C34BC46306871680836ACE8030079
:1004D000A6426746F6D1317808208CF800107146A4
:1004E000FFF7E8FE2A684F497FE7082B38D14A4DCD
:1004F00063794A492B70A3796F466B70E379AB70CF
:10050000237A394CEB70434B2A6820461B6805F070
:1005100009F90023E371354C4349204605F022F9DF
:100520002A6804F10F002F4905F0FCF804F10C06CD
:10053000D4F800E06268A3682C34BC463068716867
:100540000836ACE80300A6426746F6D131780820A9
:100550008CF800107146FFF7ADFE2A68334944E776
:10056000072B6BD16F46324D637932492B70A379DB
:100570006B70E379AB70237A1C4CEB70204605F06E
:10058000F1F82A6804F10F00164905F0CBF804F1E0
:100590000C06D4F800E06268A3682C34BC463068CE
:1005A00071680836ACE80300A6426746F6D1317898
:1005B00008208CF800107146FFF77CFE2A681E495F
:1005C0000E4805F0AFF8022318210C4A13E700BFCC
:1005D00058170020BC19002018180020D819002036
:1005E00004110020DE630000B41700202F1A002041
:1005F0009C630000C0170020A4630000E4190020E1
:10060000E0190020C0630000C8170020AB630000A1
:10061000B66300005C1A0020DC190020BD630000F6
:10062000C3630000C9630000D0630000D963000009
:10063000B8190020E1630000E9630000092B2FD105
:100640006F462A4E63792A493370A3797370E37930
:10065000B370237A274CF370204605F083F8264BBD
:1006600004F10F001A68254905F05CF804F10C0547
:10067000D4F800E06268A3682C34BC462868696836
:100680000835ACE80300A5426746F6D12978082072
:100690008CF800107146FFF70DFE32681849A4E689
:1006A000042B20D16379FF2B06D100234FF6FF7175
:1006B0001A46144801F0FEFCA379FF2B06D1002353
:1006C0004FF6FF7219460F4801F0F4FCE379FF2B57
:1006D00009D100224FF6FF7311460A4818B0BDE851
:1006E000F04101F0E7BC18B0BDE8F081D41900205A
:1006F000F06300002F1A0020B8190020DE6300000C
:10070000F5630000F865000008B5FFF7EDFD052270
:100710000D4B9A7001225A700722DA701222DA7594
:1007200000F04CF8FFF764FD3C21022000F038FD9A
:1007300000F082FB00F04CFC044B112218680449C5
:10074000BDE8084002F0EEBABC19002000100020FD
:10075000FC63000013B5684600F08FFC144C009B4E
:1007600023609DF804102068217100F01BFF00F049
:100770000BFB012819D10F4800F01EFB012814D1F2
:100780000D4C0C49E07800F0A7FB01280DD1122395
:100790002046E37500F0A8FB00F0CAFB00F0EBFB7D
:1007A00002B0BDE81040FFF7ABBD02B010BD00BF06
:1007B0002A1A0020A9190020BC1900207FB5084A78
:1007C000084B01A8CDE901230023074A8DF8143016
:1007D000CDE9033201F0BCF907B05DF804FB00BFBE
:1007E0000000015A03020303A086010008B504F0CB
:1007F00071FDFFF789FF04F07AFDFFF7ABFFFAE721
:100800007FB5094B8DF80000019302238DF801108C
:10081000064801A9CDF808D0ADF80C3001F050FA27
:1008200007B05DF804FB00BF500001000000015A52
:1008300000B50C4B89B003930DF10703049301231A
:100840008DF807000DF10B0203A90748ADF814302D
:100850000692ADF81C3001F033FA9DF80B0009B098
:100860005DF804FB500004000000015A38B50D4645
:100870000446FFF7DDFF2843C1B22046BDE83840FB
:10088000FFF7BEBF70B504460D4601200021164695
:10089000FFF7B6FF04210520FFF7B2FF80210A20F1
:1008A000FFF7E4FF2544AC4218D103210120FFF7F4
:1008B000A7FF41F288340520FFF7BAFF430713D59D
:1008C00000210120FFF79CFF2220FFF7B1FF3070CD
:1008D0002120FFF7ADFF7070012070BD092014F8D2
:1008E000011BFFF78DFFDEE7013CA4B2002CE2D133
:1008F0000420F2E72DE9F04F85B09946DDE90E5668
:100900009DF84830DDF8408082468B4614460193BE
:10091000B8F1000F32D098F800709DF84420002103
:10092000012007EB0217FFF76BFF7F210420FFF781
:1009300067FF80210A20FFF799FFFFB2A144A1457C
:100940001ED139460D20FFF75BFF51460120FFF70E
:1009500057FFBAF10C0F03D180210D20FFF786FF5E
:100960004FF4FA640420FFF763FF10EA0B0F5AD12B
:10097000C20701D4013CF5D1042049E04746CCE749
:10098000092014F8011BFFF73BFFD8E7ADB1A6B172
:100990000A20FFF74DFF337883423CD3AA463070DC
:1009A0004419544516D10C20FFF742FF00F0070010
:1009B000B8F1000F01D088F800003B072DD475B3C3
:1009C0006EB3019B5BB33178012909D1042828D18A
:1009D00009201DE00920FFF72BFF0AF8010BE0E7D3
:1009E0001FD9F0B90239284603AAC9B2FFF74AFF56
:1009F00001280DD133781D4415F8022C9DF80C30D8
:100A00009A420ED115F8012C9DF80D309A4208D16A
:100A100005B0BDE8F08F0520FAE70320F8E70120D4
:100A2000F6E70820F4E70620FFF702FF074610F07C
:100A30001300ABD00220EBE710B586B09DF828403C
:100A4000009204949DF8244002460394089C0C20D4
:100A5000CDE901340B463021FFF74CFF06B010BD45
:100A600038B50D460446FFF7E3FE20EA0500C1B2A3
:100A70002046BDE83840FFF7C3BE30B589B0144604
:100A80000D468DF8170011B31378012B1FD9802163
:100A90000E20FFF7E5FF07238DF81F300023CDE977
:100AA00001330DF11F0300932A46234601210DF166
:100AB0001700FFF7C1FF012807D12378022B08D1C7
:100AC0009DF81F30002B18BF022009B030BD052053
:100AD000FBE70220F9E70A4601462620FFF7CDBFD3
:100AE0002DE9F04F5029074688468BB000F22E8141
:100AF00080210E20FFF7B4FF93238DF81C30B8F14E
:100B0000000F00F0B08097F800B0BBF1040F94BF65
:100B10004FF0000B4FF0010B012500265FFA8BFB15
:100B2000A8EBC60464B224EAE474BBF1000F00F041
:100B3000B580882303228DF81E3014F0070318BFF8
:100B4000012303EBE40313F0FF03E1B219D0CBF16F
:100B5000040E5FFA8EFE9E4594BF02EB0E0C02EB74
:100B6000030C701C57FA80F05FFA8CFC13460132BC
:100B700010F801EBD2B228336B44624503F80CEC59
:100B8000F4D1BBF1000F01D008314CB21F2C4FDD66
:100B900070239DF81F208DF81D309DF81E30072111
:100BA00053409DF8202007A853409DF82120534032
:100BB0000DF123028DF82230FFF764FE01288246F2
:100BC00040F0C08000238DF81A304FF00303A34695
:100BD0004FF0090A8DF81B300DF122099DF81A30EB
:100BE0000D2003EB0311C9B20593FFF709FE0022A4
:100BF000059B514601930DF11A03029200934A4658
:100C00000DF11B0307A8FFF717FF0328824647D102
:100C10000E20FFF70DFE810600F19480022C00F3F8
:100C2000898054469DF81E3043F004038DF81E3031
:100C3000E310023304F00702DBB2002A0CBF9A462D
:100C400003F1010A02EB03118DF81A2007AA02EB47
:100C50000309C3F10903A3468DF81D105FFA8AFA50
:100C60008DF81B30BAE7C34656E795238DF81C3044
:100C7000B8F1000F0BD097F800B0BBF1070F94BF8D
:100C80004FF0000B4FF0010B5FFA8BFB48E7C346B8
:100C9000FAE7972306268DF81C3041E702224CE73D
:100CA00001284FD1BBF11F0F4FF020047FF770AF29
:100CB0009DF81E300136882B0BBF032302231A46F2
:100CC00004221A4457FA86F6D2B219462831013363
:100CD000694411F80C1CDBB2934206F8011BF4D1F5
:100CE0009DF81B60032E34D19DF81AB0BBF1000FA4
:100CF0002FD1012148460DF11E02FFF7C3FD012847
:100D000082461FD19DF81E2099F801309A4223D1C6
:100D10009DF81F2099F802309A421DD199F80030B1
:100D20005A070AD50135EDB2032DB2D0042D01D0FA
:100D3000022D9AD04FF0060A04E005EB4505013577
:100D4000FB723D7050460BB0BDE8F08F4FF0070AC4
:100D5000F8E74FF0020AF5E74FF0080AF2E70F2133
:100D60000120FFF74DBD08B51420FFF761FD00F02D
:100D70000303032B07D0BDE8084040F00300C1B2D5
:100D80001420FFF73DBD08BD022307B50021122046
:100D90008DF80330FFF734FD00211320FFF730FDFD
:100DA00026212420FFF72CFD0DF1030101A8FFF7F8
:100DB00092FE03B05DF804FB1FB50021044601A8B4
:100DC0008DF804108DF80F10CDF80510CDF809102E
:100DD000ADF80D10FFF784FE012811D19DF8043005
:100DE00023709DF80F30E372DDF80530C4F8013050
:100DF000DDF80930C4F80530BDF80D30A4F809302D
:100E000004B010BD08B52620FFF712FD00F07000F9
:100E100008BD10B50446FFF7F5FFA0420AD07021C7
:100E20002620FFF71DFE04F070012620BDE81040CB
:100E3000FFF71CBD10BD000008B5FFF790FFA9210A
:100E40002B20FFF7DDFC03212C20FFF7D9FCE82144
:100E50002D20FFF7D5FC40211520FFF7D1FC3D21C7
:100E60001120FFF7CDFCFFF77EFF5020FFF7D1FFE9
:100E7000FF22044B1A705A709A70DA701A715A7104
:100E800008BD00BF601A002000B58BB08DF81D10A2
:100E9000116892888DF81C00ADF822205A78CDF8A0
:100EA0001E108DF824209A7810218DF82520DA78EC
:100EB0001B798DF826208DF82730002307AACDE96D
:100EC0000333CDE9013300930E200C23FFF712FD0D
:100ED0000BB05DF804FB00000B46024A014660209F
:100EE000FFF7D2BF601A002030B50025C37D87B060
:100EF000112B0446059519D930238DF814308378C9
:100F000002210DF1160205A88DF81530FFF7BAFC85
:100F1000012809D1CDE901500421009504F11703FE
:100F2000621D05A8FFF788FD07B030BD0520FBE76F
:100F300030B55023002587B002210DF1160205A817
:100F40008DF814308DF81550FFF79CFC01280446ED
:100F50000ED12B462A460421CDE90155009505A85E
:100F6000FFF76AFD042803D0012814BF04460224B9
:100F7000204607B030BD08210846FFF771BD0309C0
:100F800003EB830300F00F0000EB430070470A22DD
:100F9000B0FBF2F302FB1300C0B200EB031070478A
:100FA0007FB5094B8DF80000019302238DF80110E5
:100FB000064801A9CDF808D0ADF80C3000F080FE4D
:100FC00007B05DF804FB00BFD00001000000015A2B
:100FD00008B500210E20FFF7E3FFBDE80840082117
:100FE0000F20FFF7DDBF000000B50C4B89B0039365
:100FF0000DF10703049301238DF8070002AA03A94A
:101000000748ADF814300692ADF81C3000F058FED9
:101010009DF8080009B05DF804FB00BFD000040093
:101020000000015A37B502AB03E903009DF8000048
:10103000FFF7ADFFC1B200209DF80250FFF7B0FFEF
:101040009DF80100FFF7A3FFC1B20120FFF7A8FF41
:101050002846FFF79CFF9DF80440C1B2012C06D141
:101060009DF80330012B0CBF60234023194302205D
:1010700003B0BDE83040FFF793BFF8B50446012048
:10108000FFF7B2FF0025FFF77AFFC6B22846FFF749
:10109000ABFFFFF774FFC7B20220FFF7A5FF00F018
:1010A0003F00FFF76CFF2770A07066702046E57068
:1010B0002571F8BD7FB5094B8DF80000019302231F
:1010C0008DF80110064801A9CDF808D0ADF80C3014
:1010D00000F0F6FD07B05DF804FB00BF78000100EA
:1010E0000000015A030630B50FD43F290DD8012462
:1010F000CB08084D01F0070100EBC31004FA01F121
:101100002B5649B212B10B432B5430BD23EA0103D5
:10111000FAE700BF0511002000212DE9F843084639
:10112000FFF7C8FF10210020FFF7C4FF4021002077
:10113000FFF7C0FFB0250027DFF8509029460020B8
:10114000FFF7B8FF02210020FFF7B4FF10210020B5
:10115000FFF7B0FF3C46102609EB0408402018F8C2
:10116000011B013EFFF7A6FF16F0FF06F6D1103473
:1011700007F180039C42EED10135B4F5806FEDB2EA
:1011800001D1BDE8F8832746D8E700BF051100204C
:101190004FF480620021014804F0BBBA0511002021
:1011A000424B10B51870424B044619700020AE2116
:1011B000FFF780FFD5210020FFF77CFF8021002072
:1011C000FFF778FFA8210020FFF774FF3F210020E0
:1011D000FFF770FFD3210020FFF76CFF00210846C6
:1011E000FFF768FF40210020FFF764FF8D210020FA
:1011F000FFF760FF012C0CBF102114210020FFF726
:1012000059FF20210020FFF755FF00210846FFF776
:1012100051FFA1210020FFF74DFFC8210020FFF75B
:1012200049FFDA210020FFF745FF12210020FFF7D8
:1012300041FF81210020FFF73DFF012C0CBF9F21C2
:10124000CF210020FFF736FFD9210020FFF732FF22
:10125000012C0CBF2221F1210020FFF72BFFDB2105
:101260000020FFF727FF40210020FFF723FFA421E4
:101270000020FFF71FFFA6210020FFF71BFF2E21F4
:101280000020FFF717FFAF210020FFF713FF002317
:10129000084A1370084A13700122084B1A70FFF7AE
:1012A00077FFBDE81040FFF737BF00BF7B1A002073
:1012B0007A1A00207D1A00207E1A00207C1A002055
:1012C0002DE9F74FA3EB0109A2EB000AB9F1000FDA
:1012D000B8BFC9F10009BAF1000FB8BFCAF1000ADE
:1012E000D14504460D461746DDF830B003DD1F46F4
:1012F0000C4613460546BC4205DD2A461D461346EC
:1013000022463C461746A7EB04085FFA88F2009293
:101310005A1B002AB8BF52429D42B4BF01264FF06B
:10132000FF36D2B20192C8F34608BC4202DD03B0D8
:10133000BDE8F08FD145E3B2E8B21CDDBBF1000F90
:1013400017D001221946FFF7CDFE019BA8EB030839
:101350001FFA88F30FFA88F8B8F1000F06DA009A3E
:10136000354403EB02082DB20FFA88F8013424B299
:10137000DBE75A46E6E7BBF1000F03D00122014646
:101380001846E0E75A46FAE707B5013A00935318C2
:101390000246FFF795FF03B05DF804FBF8B50F4672
:1013A0001E4605B28418A54200DBF8BDE8B23246FD
:1013B0003946069B0135FFF7E7FF2DB2F3E7000042
:1013C000030605D43F299FBF024B1870024B1970CA
:1013D000704700BF7D1A00207E1A00202DE9F04FD3
:1013E0002028044685B00AD15D4B1B78002B3DD1E7
:1013F0005C4B1B68002B39D005B0BDE8F08F072887
:1014000005D10023584A1370554A1370F4E7082891
:101410000FD1564952480A78037802EB4201B3EBE8
:10142000410FC0F28D80A2EB820203EB42030370F6
:10143000E2E70D2803D14A4B00221A70DCE74B4B40
:10144000494A0A28197813780AD103EBC103DBB2A1
:101450001370072212FB0133402BCDDD424BEBE72B
:10146000A0F12003DBB25F2B28BF3F240027A4F1AB
:10147000530303EB830303F1FF0202923C4AD318A8
:101480000393522C5FFA87FB5CD83A4B029A1344C1
:10149000002613F80790DFF8D4A0314D9AF80030F9
:1014A000DFF8C480012B287898F8001009F00102B9
:1014B0004AD131445844C9B2C0B2FFF713FE0136D5
:1014C000F6B2072E4FEA5909E8D10137052FD8D1D6
:1014D0009AF80020297802EB820008440021C2EB30
:1014E000C2030091DBB298F80010C0B2FFF756FFBC
:1014F0009AF800202B7802EB4201802003EB410395
:10150000062111FB0201DBB28B42D8BF2B70154BB9
:10151000C8BF28701B68002B3FF46EAF05232978E5
:1015200013FB0213802B7FF767AF00232B7098F813
:101530000030072103EBC203DBB288F8003089E7F3
:101540003F2493E7039BA3E703FB061103FB0B0078
:101550000092C9B21A46C0B2FFF720FFAFE700BF42
:101560007D1A0020081500207E1A00207C1A002019
:101570001A6500001B64000010B51C46FFF720FF31
:10158000012C38BF0124064B1C70541E14F8010FA7
:1015900018B9BDE81040FFF7BFBDFFF71FFFF5E723
:1015A0007C1A00201FB504AB03E903000A4C9DF828
:1015B00008309DF80A20009320469DF8093007491D
:1015C00004F0B0F8002101232246084604B0BDE82B
:1015D0001040FFF7D1BF00BF661A00200E64000064
:1015E00000F0C2B808B50421002001F09BFF0421DF
:1015F000062001F097FF0721084601F093FF07211D
:10160000082001F08FFF07211C2001F08BFF07212C
:10161000242001F087FF0721252001F083FF00200F
:1016200008BD000007B501A803F00CF89DF80530CF
:10163000012B27D1204A936DDB0313D4536B23F482
:10164000FF0323F4FE4343F4BC1343F4A06353634A
:10165000136B23F4704343F440431363136B43F45D
:10166000E06313639DF8043063B94FF000531B68C7
:10167000124B1B68124B1B68124B1B68124B1B68EA
:10168000124B1B68124AD2F8803043F00303C2F8B1
:10169000803003F03DFB00F072F803F0E5FA03F050
:1016A000EBFA03F01FFBFFF79DFF03F0CBFA03B04B
:1016B0005DF804EB00F061B800C00050004000206D
:1016C0000080002000C00020000001200040012018
:1016D0000080005008B500F0BDF900F0EDFE00F00C
:1016E00015F800F019F800F027F8BDE8084000F000
:1016F00077B808B500F036F8BDE8084003F0E6BB5F
:10170000704770477047704770477047014800F056
:101710001FBA00BF0C150020014800F0E1BA00BF5D
:10172000F865000018B1034B1860002070472520B1
:10173000704700BFD81A002010B5054C0549206835
:1017400001F092F92068BDE81040FFF7EBBF00BF41
:101750009015002094160020014B1868704700BFB8
:10176000D81A00200F207047042208B51146002324
:10177000032002F071FB002008BDFFF731BF704766
:1017800070B50024064625465B21082000F0BEF90E
:10179000102C04F1010300D170BD012B14D0022BD9
:1017A00014D0032B14D0042B14D0052B04D16A1CA5
:1017B0002946D5B21C46E8E70D3C012C0CD9102B6C
:1017C0000CD0B21FD15CF5E70C21F3E7D121F1E792
:1017D0008021EFE70021EDE75A21EBE75D21E9E702
:1017E00013B5082000F086F9FFF7B6FF01230C4C73
:1017F0008DF8003090F8323020607BB9006803F03B
:1018000009F9236820F07F4093F8313040EA837073
:1018100001906846FFF7B4FF02B010BD0020F0E76A
:10182000DC1A0020FEE7000008B500F02DF8124B8E
:1018300012498B4212D30020114B12498B4218D30C
:10184000FEF79CFC186850F82240586840F8224087
:10185000013298688242F5D30C33EAE70022F8E7B8
:101860001C6844F8220001325C68A242F8D30833B5
:10187000E4E70022F8E700BF746C0000806C000011
:10188000806C0000806C00006FF00100104B114A6A
:1018900010B59A60D3F888200F4942F47002C3F85B
:1018A000882001F50052106641F2FF705066022058
:1018B000C3F8D000BFF34F8FBFF36F8F08244FF4EE
:1018C00040330648C0F88041D36004600B6110BD0E
:1018D00000ED00E0000000000080004400E100E0B6
:1018E000014B1868704700BFBC160020014B186000
:1018F000704700BFBC160020084B1B6F03F00703A6
:10190000022B04D0032B05D0012B05D0FEE7044B9E
:1019100018687047034BFBE703487047008000508E
:10192000BC160020C0160020002D310108B5FFF7BD
:10193000E3FF054B1B6FC3F301330133B0FBF3F03F
:10194000024B186008BD00BF00800050B816002090
:101950000048704700B4C404014B1868704700BFCA
:10196000C0160020054B1860054B1B6F03F00703E2
:10197000032B01D1FFF7DABF704700BFC01600206C
:10198000008000500020704700487047002D310152
:10199000174B9868C0F304400C2822D8DFE800F009
:1019A000092121212121071719211B1D1F00114881
:1019B00070479B6803F04073B3F1807F13D0B3F19D
:1019C000007F12D00C4A002B08BF104670470B480E
:1019D00070470B4870470B4870470B4870470B48DF
:1019E0007047002070470A4870470A48704700BF98
:1019F0000040015A405DC60000093D000024F4008B
:101A0000C0EA210180BA8C010048E801005A620254
:101A100080841E0040420F004FF4004070474FF496
:101A20007A707047014B1868704700BFC4160020D9
:101A3000FEE7000005490A681318054883428CBF79
:101A40004FF0FF320B601046704700BFC8160020F1
:101A50000080012008B5042201230321002002F0A8
:101A6000FBF9002002F093F901221B4B0521C3F87A
:101A700044240C2001F056FD0C2001F0EBFB174B29
:101A800000F5D520D3F8F02000F2FC4042F001022E
:101A9000C3F8F020D3F8FC2042F08072C3F8FC2099
:101AA0000F4AA3F55D431A600E4B0222B0FBF3F020
:101AB0000D4B01381861C3F8F0204FF48072C3F861
:101AC00004234FF06043094A0020C3F8B02F084AAE
:101AD000C3F8802E08BD00BF00D0035000ED00E029
:101AE000FF030040F8590D00000004E055CEACC5DE
:101AF000090001004FF060420123D2F8001E03FAF2
:101B000000F00843C2F8000E002070474FF0604319
:101B1000D3F8802E30B5D20715D501240B4D844063
:101B2000D5F8FC2042F08072C5F8FC20D3F8002ED6
:101B30002243C3F8002E53F82020002AF0D003F8E7
:101B40002010002030BD1120FCE700BF00ED00E0B8
:101B50002DE9FF47044618B92C215448FFF768FFC8
:101B60002368534A934209D0524A934206D04221F5
:101B70004E4804B0BDE8F047FFF75ABF01230A22E0
:101B80006179207902F068F901230A22E179A079CC
:101B900002F062F909274FF00108DFF82091464D65
:101BA000267994F805A0002E60D0012E60D0022E78
:101BB00060D0032E04D11F2323FA0AF3DA0704D4DA
:101BC00040F2FE314846FFF733FF302202FB065653
:101BD00042F2100208FA0AF3B350642003F092FBB9
:101BE000267994F805A0002E46D0012E46D0022E6C
:101BF00046D0032E04D11F2323FA0AF3DB0704D4B3
:101C000040F22D414846FFF713FF302202FB0656F3
:101C100041F2100208FA0AF36420B35003F072FB99
:101C2000013FBDD12068224B98422BD10323C5F838
:101C300098346279237943EA0243C5F89C34E27907
:101C4000A37943EA0243C5F8A03440F20113ADF88A
:101C50000030E36869460293A3680193237C8DF802
:101C60000C3002F0DBF904B0BDE8F0877F23A3E776
:101C70000323A1E73F239FE77F23BDE70323BBE7C0
:101C80003F23B9E70B4B9842DFD10323C5F8A834B3
:101C90006279237943EA0243C5F8AC34E279A37947
:101CA00043EA0243C5F8B034CFE700BF186600002E
:101CB0000000015A0080065000C003507766000003
:101CC00038B5054602F000FB044C012801D1013C67
:101CD00000D138BD284602F0D5F9F6E7E1930400BB
:101CE000D0E900031847C37A0B80704708B50E4B44
:101CF000984212D003F58043984211D003F58043F7
:101D000098420DD003F58043984209D0074840F22D
:101D1000A721FFF78DFE002008BD4FF0FF30FBE745
:101D20004FF6FF70F8E700BF00800450CC6600005B
:101D30000123017A0269104803FA01F1824216D0A8
:101D400000F58040824209D00C4B9A4211D003F535
:101D500080439A420CBF03234FF0FF3341F22C52D1
:101D60005B0103F1A04303F57033995070470023E2
:101D7000F4E70223F2E700BF0080045000000550A2
:101D80000123017A0269104803FA01F1824216D058
:101D900000F58040824209D00C4B9A4211D003F5E5
:101DA00080439A420CBF03234FF0FF3342F22C5280
:101DB0005B0103F1A04303F5703399507047002392
:101DC000F4E70223F2E700BF008004500000055052
:101DD0002DE9F041044603698769DE69013FC1725C
:101DE000B6FBF7F7FFF7CCFF2569E67A284694F8AB
:101DF0000880FFF77BFF7E43864204D940F2FA2138
:101E00000948FFF715FE2B6BDB0704D44FF43F7135
:101E10000548FFF70DFE05EB481520462E67BDE887
:101E2000F041FFF785BF00BFCC66000070B50369C5
:101E3000654A0446934288B00FD002F5804293422F
:101E40000BD002F58042934207D002F580429342C4
:101E500003D098215D48FFF7EBFD237A022B03D9CD
:101E600099215A48FFF7E4FD594B5A4A23605A4BCF
:101E700063602369934200F0988000F29080A2F59D
:101E80000042934200F0938002F58042934200F0BA
:101E9000908068214D48FFF7CBFD00260D220021E0
:101EA000684603F036FC03238DF806300223012533
:101EB00020698DF8013000F580531D638DF80550C1
:101EC000FFF714FFA369AB427BD9834279D8237B08
:101ED0006A46003B18BF0123217A20698DF80A3039
:101EE00002F070FC0422237BA17A607A01F0B4FF37
:101EF0002269354B9A425ED003F580439A425CD00A
:101F000003F580439A425AD034483549A3F59D33AE
:101F1000703B824218BF0B46A07A627A217A42EA6D
:101F2000004243F82120606930B1304601F092F957
:101F30006369B0FBF3F00138A3692669013BB0FB8C
:101F4000F3F05843834238BF034630461D46FFF73F
:101F5000CDFE854204D940F289412248FFF768FD51
:101F6000336BDB0704D440F28B411E48FFF760FD62
:101F70000E220021F56104A803F0CBFB01232069A8
:101F800004A98DF8103002F0C5FB2046E17AFFF776
:101F90001FFF2046FFF7F4FE002008B070BD0F4A77
:101FA00093427FF476AF202678E71F2676E71D263A
:101FB00074E71E2672E70C4BAEE70C4BACE70C4BFC
:101FC000AAE72846E9E700BF008004502267000026
:101FD000D11D000000000550E71C00000040055026
:101FE00010C50350CC66000030C5035050C50350E7
:101FF00070C5035010B504460068FFF717FF0128AD
:1020000001D1012010BD6068FFF710FF0128F8D052
:10201000A068FFF70BFF01281CBF00232376F1E720
:1020200010B504460068FFF783FE6068FFF780FE86
:10203000A068FFF77DFE0123237610BD10B504468E
:102040000068FFF79DFE6068FFF79AFEA068FFF743
:1020500097FE0023237610BD037E0BB9FFF7E0BF88
:10206000FFF7ECBF007E704770B5044616461D466C
:102070000068036898472368314660681B68984782
:1020800023682946A0681B68BDE87040184770B5F2
:10209000044616461D460068436898472368314643
:1020A00060685B68984723682946A0685B68BDE85C
:1020B0007040184710B484690068A4465DF8044B6A
:1020C000604700002DE9F04F9A46564B85B01B78CB
:1020D00006460F461546DDF83C909DF844B0DDF805
:1020E0005080002B00F08D80072A00F28C800E9B20
:1020F000002B00F08880B9F1000F00F08480129B63
:10210000B3F5006F7FDC012802D1109B002B7AD041
:10211000454B03EB05131B7B002B76D0434C102261
:102120000021684603F0F5FA04EB45141022002F55
:1021300059D13946204603F0ECFA43F2100363808C
:10214000BBF1000F03D1E37843F00303E370374A98
:102150000E9B02EB451CCCE90193129B6901013BEC
:10216000C3F30A009DF84C30012E03F003034FEA3D
:10217000836343EA001E53582D48CDF800A000EABF
:1021800003004EEA0003535041D113230CF1100E0B
:10219000CCF80C309CE80F008EE80F006FF00301C4
:1021A000DCF81C20109B61F39F02012FCCF81C204F
:1021B000CCF8143003D1CCF81890CCF804300027B8
:1021C000194A290102EB051342F80180159A2846A5
:1021D0005A60694622469F605E7302F037F93846BE
:1021E00005B0BDE8F08F0021204603F092FA4FF4CD
:1021F00044736380BBF1000FA9D1E37843F030034F
:10220000A4E70C48ECE70C48EAE70C48E8E7B8F12B
:10221000000FD4D19CF8023068F304138CF802301C
:10222000CDE700BF601C0020E01A0020601B0020EA
:102230000F80FFF3028000F0018000F0078000F0C3
:1022400038B5124B05461B78DBB1E0B101F0C3FC99
:102250000F4A00231146147B54B92B6001251A0143
:1022600001EB03131D738C5001F0BBFC204638BDFD
:102270000133082B02F11002EDD101F0B2FC054848
:10228000F5E70548F3E70548F1E700BF601C0020CB
:10229000E01A0020048000F0028000F0018000F0CD
:1022A000154B13B51868002301908DF8043001F028
:1022B00092FC124B1C7824B101F093FC104802B040
:1022C00010BD01221A7001F08CFC0E4B01A81C738A
:1022D0001C7783F82C4083F83C4083F84C4083F80B
:1022E0005C4083F86C4083F87C4008238DF807300D
:1022F00002F06AF82046E2E782670000601C0020D6
:10230000038000F0E01A002010B588B00E9C009207
:1023100007940D9C024606949DF8304005940B9C52
:1023200004949DF8284003940024CDE9013420460C
:102330000B462146FFF7C6FE08B010BD0A4A08B595
:1023400012785AB107280BD8084A02EB00131B7BFE
:1023500043B1002102F016F8002008BD0448FCE754
:102360000448FAE70448F8E7601C0020E01A00205F
:10237000028000F0018000F0078000F00A4A08B5F2
:1023800012785AB107280BD8084A02EB00131B7BBE
:1023900043B1012101F0F6FF002008BD0448FCE72D
:1023A0000448FAE70448F8E7601C0020E01A00201F
:1023B000028000F0018000F0078000F00D4B1B78D8
:1023C00093B1072812D889B10B4B03EB00131B7B89
:1023D00073B10A4BDA6A012303FA00F010401ABF06
:1023E00000200B700870704705487047054870471B
:1023F00005487047601C0020E01A002000000450CF
:10240000028000F0018000F0078000F02DE9F84321
:10241000174B1F6D5B6D1F4000D5FEE701260025A1
:10242000144CDFF85480DFF85490374217D02368FB
:10243000C8F850609BB1A168284601316268A1606C
:102440009847637B012B0AD148B909EB45131A7BE6
:1024500060F341021A731A7F60F341021A77013563
:10246000082D4FEA460604F11004DED1BDE8F883DA
:1024700000000450E01A002000200450601B0020DF
:1024800070B5044601250B4E04B970BD94FAA4F052
:10249000B0FA80F005FA00F306EB001224EA030418
:1024A0005368002BF0D0117B11B191689847EBE78E
:1024B0009847E9E7641C002008B5192001F094FB57
:1024C00028B14FF00072074BC3F880211A601A2020
:1024D00001F08AFB28B14FF08062024BC3F88021E3
:1024E0001A6008BD00E100E038B505460C4601F071
:1024F00072FB0022044B03EB05135C601A73BDE80A
:10250000384001F06EBB00BF641C0020064BD3F8BE
:102510002404D3F8202403F50053104000F0553074
:10252000C3F82004FFF7ACBF00C00350064BD3F83C
:102530002404D3F8202403F50053104000F0AA30FF
:10254000C3F82004FFF79CBF00C0035004220368B7
:102550005A619A699207FCD541F2AC521021037975
:102560005B0103F1A04303F57033995070470000FD
:1025700038B141B1013AB2F5006F044838BF0020CC
:102580007047034870470148704700BF037000F070
:10259000027000F038B504460D4601F01CFBA3881C
:1025A0009BB223B92B6001F01CFB064838BD1422F6
:1025B00063889BB202FB034408342C6001F011FBDA
:1025C0000020F3E70B7000F038B50D460446D8B193
:1025D00001281BD002281BD0032803D11F23EB4066
:1025E000DB0704D440F2FE310A48FFF721FA30201D
:1025F000012142F21003444304F1A04401FA05F51D
:1026000004F57034E55038BD7F23E8E70323E6E79F
:102610003F23E4E77766000038B50D460446D8B19D
:1026200001281BD002281BD0032803D11F23EB4015
:10263000DB0704D440F22D410A48FFF7F9F93020B6
:10264000012141F21003444304F1A04401FA05F5CD
:1026500004F57034E55038BD7F23E8E70323E6E74F
:102660003F23E4E777660000436B10B5002B044678
:1026700003DC77210348FFF7DBF9636B013B6363FE
:1026800010BD00BF86670000F8B5044616460F4629
:1026900001F0A1FAA388E2889BB29A42054605D8C8
:1026A0000023336001F09DFA1748F8BD14222388F7
:1026B00007F1100C9BB202FB03433A46083317465E
:1026C00003CF6745186059603A4603F10803F6D115
:1026D000142238681860238828469BB202FB034303
:1026E000083333602388E2889BB20133B3FBF2F1F5
:1026F00002FB11339BB22380A38801339BB2A380DA
:1027000001F06FFA0020D0E70A7000F038B590F8B9
:102710003130022B25D1447F90F82150DCB1012CBF
:102720001BD0022C1BD0032C03D11F22EA40D3075D
:1027300004D440F2CF310C48FFF77AF93023142249
:1027400013FB042303F1A04303F570331868E8403A
:1027500000F0010038BD7F22E8E70322E6E73F22D0
:10276000E4E70020F6E700BF77660000002313B51A
:102770001D4A52F8044B94F8211081420ED00133C7
:10278000042BF6D102B010BD0028FBD19DF8073014
:10279000002BF7D0A068FFF7D1FDF3E794F83130B4
:1027A000022BEFD12046FFF7B1FF637E2076022B8C
:1027B000E8D194F82E3003F0FF02002BE2D1A0689C
:1027C0000DF107018DF80720FFF7F8FD237E1BB1FF
:1027D00094F82F30002BD7D00023A06884F82F3036
:1027E000FFF7CCFDCEE700BF641E002030B501240A
:1027F00090F8325087B080F82D4095B9436B02684D
:1028000023444363094B0490CDE902534B683C32A7
:10281000CDE900430B6801698068FFF775FD07B0DB
:1028200030BD002380F82D30F9E700BF7928000083
:1028300038B504460D4601F0CEF9A3889BB223B902
:102840002B60BDE8384001F0CCB9142263889BB2FC
:1028500002FB034308332B606388E2889BB2013399
:10286000B3FBF2F102FB11339BB26380A388013BFF
:102870009BB2A380E5E70000F7B5906A01A9144672
:10288000FFF788FE05462046FFF7EEFE184B9D42F7
:1028900027D0019B23B940F27B311648FFF7C8F8D7
:1028A0000026019B1E619E6001F095F9019A054684
:1028B000D76827B1D2E9002331462046B847A06A3D
:1028C00001A9FFF7B5FFA06A83889BB263B101A994
:1028D000FFF760FE20460199FFF788FF284601F0C8
:1028E00080F9012003B0F0BD84F82D30F6E700BF79
:1028F0000B7000F0866700002DE9F0410446904619
:10290000FFF736FE0E46074670BB152001F086F92C
:102910000546A26A93889BB213B194F82E3033B364
:1029200094F8323043BB23689D6915F0020528D026
:10293000012384F8303094F8323033B9B04446453E
:10294000206823D183699B06FCD56DB942F2AC5255
:10295000102123792F465B0103F1A04303F5703367
:102960009950082223685A613846BDE8F081002D4D
:10297000D0D0FFF74BFDCCE740F63A210648FFF7F1
:1029800057F82046FFF7E2FD0025D1E716F8011BB6
:1029900002F052F9D3E700BF8667000010B5044685
:1029A00080B190F82E302BB9FFF7B0FE10B9A068B7
:1029B000FFF7C4FC002094F82E300133DBB284F81A
:1029C0002E3010BD0048FCE7027000F010B5044640
:1029D000A0B190F82E309BB190F82E30012B05D18C
:1029E000FFF794FE10B9A068FFF7C8FC002094F828
:1029F0002E30013BDBB284F82E3010BD0148FCE7DD
:102A00000148FAE7027000F0057000F037B590F861
:102A100031500446022D12D1437E94F82210807F5B
:102A200023B9FFF7D1FD002003B030BD012B02D147
:102A3000FFF7F2FDF7E7237E002BF9D1F1E7012D37
:102A4000F1D1037E73B911238DF80730FFF7A6FF8C
:102A50002A4620460DF10701FFF74EFF2046FFF7FB
:102A6000B5FFE0E71323EFE7F0B504469F4F8BB0C7
:102A700003AE0D460FCF0FC697E8070086E80700A4
:102A80001CB99B4C20460BB0F0BD0DB9994CF9E731
:102A900058220021204602F03CFE9749974B0A78C5
:102AA0002AB9C3E90022C3E9022201220A7093492C
:102AB0000022084650F8046BB4420AD00132042ABE
:102AC000F8D1002251F8040B002840F0CF8043F8E1
:102AD00022402B7D84F83130286820602B7B2371C5
:102AE000874B984240F0C780212384F82330854BE0
:102AF00023614FF4802300266361D5E907236262D6
:102B000016805680968084F82C60A3621E805E80BA
:102B10009E806B6884F82D600593EB8984F82F60A4
:102B2000ADF81C302B8A03A9ADF81A30AB7C8DF8B8
:102B30000C608DF81830EB7C8DF81E3005238DF875
:102B4000193001F0E5FF14212A7B6F4B03EB42178C
:102B5000C7F8AC15287AA97A2E3240EA014C03EB6B
:102B60004213C3F804C06A7AEB7A42EA034CC7F80E
:102B7000BCC5E076E177227784F820306B7D0422B3
:102B80006377AB7D84F82130EB7DA3772B7E84F8CF
:102B90002230012301F060F90123022294F8201071
:102BA000207F01F059F994F83130022B7AD1334665
:102BB000012294F82110607F01F04EF9334604227F
:102BC00094F82210A07F01F047F9012394F8212006
:102BD000CDE900331146607F01F0DAF800F0FBFF29
:102BE0002B7D0646032B6ED141F2AC5202212B7B8A
:102BF0005B0103F1A04303F57033995004212A6867
:102C000002F58052D165297EEA7D42EA014241F215
:102C1000B8515A50A97D6A7D42EA014241F2B4514D
:102C20005A504FF0FF32286800F500539A642B7D0C
:102C3000032B0CBF0521042101F0FCFE4FF4406280
:102C40002B685A61FFF72CFB002104F10800FFF705
:102C5000F7FA014628B904F10C00FFF7F1FA04462F
:102C600000B12A4C304600F0BCFF0BE70132042AC9
:102C70007FF428AF05E7264B984207D1222384F83A
:102C80002330244B23614FF4A02334E7224B984296
:102C90007FF4FCAE232384F82330204B23614FF4D0
:102CA000C02328E7032B99D1334694F82110607F85
:102CB000012201F0D1F83346042294F82210A07FBB
:102CC00001F0CAF88AE7022BABD194F8210014492D
:102CD000FFF70AFCFFF7F0FB4FF400732383002398
:102CE0002046A376FFF792FE9BE700BFE467000053
:102CF000027000F0037000F0741E0020641E0020BB
:102D0000008005500200040000C003500E7000F067
:102D100000C0055002000500000006500200060039
:102D20006D27000030B587B004461346FFF720FC3E
:102D300020BB0393CDE90113114B04900593236845
:102D40009B699B0702D42046FFF700FC6A46A06AF5
:102D500001A9FFF799FC88B9A26A93889BB2012B5D
:102D6000FBD820460099FFF741FD012384F830305D
:102D700094F82D30002BFBD1009B186907B030BDB3
:102D8000017000F041F6713310B5104C104AA042AA
:102D90008CBF4FF480140024D169D363936801F48D
:102DA000803123F44013234393600A4B98420A4B2B
:102DB000D3F818228CBF42F0020222F00202C3F8BC
:102DC000182211B10022024BDA6310BD005A6202D0
:102DD0000000035080F0FA0200C0075008B5344BE1
:102DE000984250D028D8334B984246D018D8324B0E
:102DF00098423FD00BD800283ED0304B984239D073
:102E00002F4841F24D11FEF713FE002034E02D4B08
:102E100098422FD02C4B9842F2D12C4B586E2BE07D
:102E20002B4B98422CD003F5371303F5D863984207
:102E3000E6D1264B986F1FE0264B98422FD00CD836
:102E4000254B984223D0254B984224D0244B9842BE
:102E5000D6D11E4BD3F884000EE0224B984222D0EC
:102E600003F5740303F510539842C9D1174BD3F8F7
:102E7000980001E0154B986D08BD144B186FFBE7E7
:102E8000124B586FF8E7114BD3F88000F4E70F4B63
:102E9000D3F88800F0E70D4BD3F88C00ECE70B4B30
:102EA000D3F89000E8E7094BD3F89400E4E700BFBB
:102EB00080BA8C01405DC60080841E0040420F0035
:102EC0000068000000093D00C0CF6A000080E00FEC
:102ED0000024F400007E560380D54302006CDC021F
:102EE0000048E8010090D00308B5FEF731FDBDE8C9
:102EF00008400021FFF746BF38B50F4B0546D3F811
:102F000080300C4603F00303022B09D0032B0FD0B3
:102F10000A4840F6B271FEF78BFD0023184602E026
:102F2000FEF704FD0B2305B1286004B1236038BD12
:102F3000FEF72EFD0523F6E7008000500068000034
:102F400038B5154B0546D3F820310C4603F007037E
:102F5000013B032B17D8DFE803F0020A0E12FEF73D
:102F6000BFFC042305B1286004B1236038BDFEF71F
:102F7000F3FC0323F6E7FEF70BFD0523F2E7FEF76C
:102F800003FD0223EEE7054841F22B01FEF750FD59
:102F900000231846E6E700BF0080005000680000EC
:102FA00073B50024144B0194D3F88031064603F026
:102FB0000303022B0D460FD0032B12D0012B15D18A
:102FC000214601A8FFF7BCFF0D240EB1019A326023
:102FD00005B12C6002B070BDFEF7DAFC052401904B
:102FE000F3E7FEF7D1FC02240190EEE741F27811FD
:102FF0000248FEF71DFDE8E7008000500068000071
:1030000038B5124B0546D3F840310C4603F00303A4
:10301000022B0BD0032B0DD0012B0FD1FEF7FCFCA4
:10302000082305B1286004B1236038BDFEF7FAFC1F
:103030000723F6E7FEF7F3FC0923F2E7044841F221
:103040005901FEF7F5FC00231846EAE7008000501E
:103050000068000038B5124B0546D3F860310C46C5
:1030600003F00303022B0BD0032B0DD0012B0FD148
:10307000FEF7D2FC082305B1286004B1236038BDF7
:10308000FEF7D0FC0723F6E7FEF7C9FC0923F2E7B9
:10309000044841F28701FEF7CBFC00231846EAE71B
:1030A000008000500068000038B5154B0546D3F885
:1030B00000320C4603F00703013B032B18D8DFE86E
:1030C00003F0020A0E12FEF7A7FC082305B12860E0
:1030D00004B1236038BDFEF7A5FC0723F6E7FEF731
:1030E0009EFC0923F2E7FEF721FC0C23800AEDE7A2
:1030F000044841F22E21FEF79BFC00231846E5E729
:10310000008000500068000038B5154B0546D3F824
:1031100008320C4603F00703013B032B18D8DFE805
:1031200003F0020A0E12FEF777FC082305B12860AF
:1031300004B1236038BDFEF775FC0723F6E7FEF700
:103140006EFC0923F2E7FEF7F1FB0C23800AEDE7A2
:10315000044841F26221FEF76BFC00231846E5E7C4
:10316000008000500068000038B5124B0546D3F8C7
:1031700040320C4603F00303022B0BD0032B0DD07F
:10318000012B0FD1FEF748FC082305B1286004B1DC
:10319000236038BDFEF746FC0723F6E7FEF73FFC49
:1031A0000923F2E7044841F2C111FEF741FC002374
:1031B0001846EAE7008000500068000038B5104B60
:1031C0000546D3F800310C4603F00303022B0BD065
:1031D000032B0DD0012B0FD1FEF7BEFB032305B14E
:1031E000286004B1236038BDFEF71CFC0723F6E716
:1031F000FEF7C8FB0623F2E701230020EFE700BF3C
:1032000000800050032810B51BD005D8012805D038
:10321000022810D000240CE00F28FBD10B4B1C6FB0
:10322000C4F30134022C04D140F269210848FEF7AE
:10323000FFFB601C10BD054BD3F89040C4F3046441
:10324000F7E7024B1C6FC4F38024F2E700800050C4
:10325000006800001FB500230193252873D8DFE81C
:1032600000F013191C252A34394F54595E63686DD8
:1032700072193E72725419252A2534194F256D3959
:10328000393939252525595EFEF736FB019001981D
:1032900004B010BDFEF74AFBF8E7FEF72DFB04462D
:1032A0000220FFF7AFFFB4FBF0F0EFE7FEF73EFBC5
:1032B00004460320F5E7FEF739FB04460320FFF739
:1032C000A1FFB4FBF0F04008E0E7002101A8FFF700
:1032D00067FEDCE7002101A8FFF732FED7E7029383
:1032E0004FF0E0231B695B0705D5FEF71FFB02903B
:1032F000029B0193CBE703A902A8FFF781FEF7E742
:10330000002101A8FFF77CFEC1E7002101A8FFF71B
:10331000A1FEBCE7002101A8FFF7C6FEB7E7002128
:1033200001A8FFF7F1FEB2E7002101A8FFF746FF71
:10333000ADE7002101A8FFF7DFFDA8E7002101A804
:10334000FFF712FFA3E740F28F310248FEF770FB50
:103350009DE700BF0068000008B50120FFF77AFF75
:10336000BDE80840034988428CBF022101210320A7
:1033700000F002B880F0FA02032810B53DD00AD858
:1033800001280AD0022826D040F2F921BDE81040D9
:103390002248FEF74DBB0F28F6D14C1E012C06D952
:1033A000042904D04FF42C711C48FEF741FBFFF7B1
:1033B0009BFD00F037F81A4A136F23F4405343EA99
:1033C00004331367FEF7B2FA0021FFF7DBFCBDE818
:1033D0001040FFF7C1BF4C1E1F2C04D940F2ED2155
:1033E0000E48FEF725FB0E4BD3F8901021F0F85154
:1033F00041EA0461C3F8901010BD4C1E012C04D9A1
:1034000040F2F3210548FEF713FB054B196F21F439
:10341000806141EA84211967EEE700BF006800007F
:103420000080005002210320FFF7A6BF1FB5002334
:10343000019325286FD8DFE800F0136E6E6E6E2DB5
:10344000354B50555A5F64696E6E3A6E6E506E6EB3
:103450006E6E2D6E4B6E69353535356E6E6E555A06
:103460002E4B1B6F03F00703013B032B0CD8DFE847
:1034700003F009020507042301930FE00323FBE790
:103480000623F9E70223F7E740F29F412448FEF7BD
:10349000CFFA03E0002001A9FFF782FD019805B0F3
:1034A0005DF804FB002001A9FFF74AFDF6E702934F
:1034B0004FF0E0231B695B0705D5FEF737FA0B23B6
:1034C0000393039BD8E703A902A8FFF799FDF8E748
:1034D000002001A9FFF794FDE0E7002001A9FFF714
:1034E000B9FDDBE7002001A9FFF7DEFDD6E70020EC
:1034F00001A9FFF709FED1E7002001A9FFF75EFE51
:10350000CCE7002001A9FFF7F7FCC7E7002001A9DD
:10351000FFF72AFEC2E740F24B51B7E700800050A8
:103520000068000070B50C46252800F26A81DFE8CB
:1035300010F02600680168016801680160007B00E6
:10354000B600CB00E000FF001E013C015301680102
:103550006801900068016801CB006801680168019A
:10356000680160006801B600680153017B007B00C0
:103570007B007B00680168016801E000FF008B1E92
:10358000042B2BD8DFE803F0271D322A0300002587
:103590000426FFF7A9FCFFF745FF9B4A136F23F0B2
:1035A000070333431367FEF7C1F90021FFF7EAFB76
:1035B000FFF7D2FE25B9032C02D10122934B9A6268
:1035C00070BD0122924B0E469D6A03F58053C5F3F0
:1035D00040059A62DDE700250126DAE7002540F282
:1035E0008D518C48FEF724FA2E46D2E7002502269C
:1035F000CFE7052912D00D2912D0022912D040F2AE
:10360000D2518448FEF714FA00227F49D1F8803164
:1036100023F003031343C1F88031D1E70222F4E71A
:103620000122F2E70322F0E78C1E032C0AD87A4B22
:10363000195D754AD2F8203123F007030B43C2F815
:103640002031BDE740F209617248FEF7F1F900212F
:10365000EFE70B2918D00ED8CC1F022C0DD86F4ADB
:10366000536A43F0010353624FF0E022136923F0E1
:1036700004031361A4E70E29F1D040F23161BDE8E3
:1036800070406448FEF7D4B9644A536A23F00103DA
:1036900053624FF0E022136943F00403E9E7CC1FC3
:1036A000022C0AD85E4B195D574AD2F8403123F0FC
:1036B00003030B43C2F8403182E740F24D615548A5
:1036C000FEF7B6F90021EFE7CC1F022C0AD8554BC4
:1036D000195D4D4AD2F8603123F003030B43C2F861
:1036E00060316DE74FF4CD614A48FEF7A1F9002142
:1036F000EFE7CC1F052C12D8DFE804F003180D11FA
:10370000110F02224049D1F8003223F0070313437E
:10371000C1F8003254E70322F4E70422F2E740F252
:10372000AD613C48FEF784F90022EBE70122E9E7AE
:10373000CC1F052C12D8DFE804F003180D11110F6F
:1037400002223149D1F8083223F007031343C1F8AC
:10375000083235E70322F4E70422F2E740F2CD61B4
:103760002C48FEF765F90022EBE70122E9E74C1E41
:10377000062C11D8DFE804F015101710100E040005
:1037800002222149D1F8003123F003031343C1F889
:10379000003115E70322F4E740F2E9611D48FEF726
:1037A00047F90022EDE70122EBE7052910D00B29AC
:1037B00010D040F216711748FEF73AF9002212496C
:1037C000D1F8803023F003031343C1F88030F7E6CB
:1037D0000322F4E70222F2E7CC1F022C0AD8124B94
:1037E000195D094AD2F8403223F003030B43C2F8B3
:1037F0004032E5E640F2B5710648FEF719F90021BE
:10380000EFE740F667013AE70080005000E0005023
:1038100000C00050006800005468000000C007505D
:1038200058680000586800005868000070B50546E8
:10383000FFF7D4FA431E0333044604D940F6C70108
:103840002948FEF7F5F8294B5A68012A04D128497E
:103850004A609A699207FCD10020FFF7E7FD04282F
:1038600003D1FFF741FBFFF7DDFD224A24F040734F
:1038700095422DD0204A95422DD0204CE26812F07E
:10388000060FFBD1A668A360A26803F4F81302F444
:10389000F812934222D040F60F111348FEF7C8F8F1
:1038A000A6600020FFF7C2FD04281BD1FEF73EF8FA
:1038B0008542044604D24FF412610B48FEF7B8F873
:1038C00020460021FFF75EFABDE87040FFF744BDD7
:1038D00043F00073D1E743F08073CEE72846FEF74C
:1038E00005F8DEE770BD00BF0068000000C00150B1
:1038F00000E0015040420F0080841E000000015093
:10390000036870B50F2B044604D940F663216B4859
:10391000FEF78EF863680F2B04D940F666216748DE
:10392000FEF786F8A3680F2B04D940F66921634897
:10393000FEF77EF8237B0F2B04D940F66C215F48FD
:10394000FEF776F8637B0F2B04D940F66F215B48B6
:10395000FEF76EF8A37B3F2B04D940F6722157483F
:10396000FEF766F8E37B3F2B04D940F675215348F8
:10397000FEF75EF82369032B04D940F678214F48FF
:10398000FEF756F86369032B04D940F67B214B48B8
:10399000FEF74EF8E369012B04D940F67E21474833
:1039A000FEF746F80020FFF741FD03287CD045F6DE
:1039B0000E030221424AC2F88030424B9962012133
:1039C00003F580539962936DD903FCD4D4E90013B5
:1039D0001B0543EA0163E17B94F822500B43217BF2
:1039E00094F8236043EA0143617B43EA0133A17BFE
:1039F00043EA811313619169D4E904031B0643EA86
:103A0000806301F000410B43A17EE07E0B43217EE9
:103A100043EA0143617E43EA01239361136AE26949
:103A200023F00D03002A0CBF0021082143EA020302
:103A300043EA8003224A43EA0103136294F82030E8
:103A40004FEA431331D1906A94F8211020F03300EB
:103A500043EA0113034343F0010393621A4B916D50
:103A600033EA0101FBD10221164B9962936D5B0091
:103A7000FCD41069A36820F4700040EA0350106180
:103A80004FF000420F4B9A611DB9022203F580539B
:103A90009A6216B901220D4B9A6294F824301BB138
:103AA000074B0B4AC3F8802070BD916A21F03301A7
:103AB00031430B4343EA45039362EEE7006800009D
:103AC00000C0005000D000500300014000E0005052
:103AD000F1A7FFFF014B93F900007047751E00200E
:103AE000436810B5072B044604D940F6E131274856
:103AF000FDF79EFFA368032B04D940F6E33123486A
:103B0000FDF796FF2378032B04D940F6E5311F48D3
:103B1000FDF78EFF94F90130002B04DA40F6E7310F
:103B20001A48FDF785FF4FF4D1510220184A6378F7
:103B3000516218494F2B48604FF0010028BF4F23B6
:103B400001F5805148601169C903FCD4217843EA2A
:103B500001235361D4E901131B0143EA0123617B73
:103B60000B43217B43EA41039360E37BA17B1B0171
:103B700043EA4113617C0B43217C43EA41035360D8
:103B8000A37C13B16FF4D153536210BD00680000E1
:103B90000000025000100250014B1880704700BF17
:103BA000CC1600200028ABBF00F16040054B00F5AB
:103BB000614000F00F00ACBF90F80003185C0009F2
:103BC000704700BF14ED00E0EFF3108072B670474D
:103BD00000B962B67047EFF31180302383F3118888
:103BE000704780F31188704738B5C5B23C2D044644
:103BF00004D940F21F310748FDF71AFF064B64094C
:103C000053F8240005F01F05E840C04300F0010010
:103C100038BD00BF5B68000000E100E000F10C036C
:103C2000DBB2482B10B5044604D940F2AD2114484C
:103C3000FDF7FEFEEFF31083DB0702D501221046ED
:103C400010BD2046FFF7D0FF02460028F6D12046DF
:103C5000FFF7A8FF0146EFF3118313B1B0EB131F79
:103C6000ECD2084B5B68C3F30803002BE7D0103B92
:103C700058B2FFF797FF88428CBF00220122DEE78F
:103C80005B68000000ED00E0034A0179D36E23F089
:103C900030030B43D3667047004000501F2970B5B6
:103CA00004460D46164603D991210748FDF7C0FE8C
:103CB00036B104F58054012101FA05F5256070BD87
:103CC00004F50054F7E700BFB068000038B50D46B2
:103CD0000446D8B101281BD002281BD0032803D1E9
:103CE0001F23EB40DB0704D440F22D410A48FDF7C7
:103CF0009FFE3020012141F21003444304F1A0440F
:103D000001FA05F504F57034E55038BD7F23E8E786
:103D10000323E6E73F23E4E77766000038B50D4666
:103D20000446D8B101281BD002281BD0032803D198
:103D30001F23EB40DB0704D440F2FE310A48FDF7B5
:103D400077FE3020012142F21003444304F1A044E5
:103D500001FA05F504F57034E55038BD7F23E8E736
:103D60000323E6E73F23E4E77766000070B50546E6
:103D700014460E46FFF728FF296881EA040202EA8A
:103D800006044C402C60BDE87040FFF721BF70472F
:103D90002DE9F3470D4614461F4606469DF8289028
:103DA0009DF82C80002842D0012842D0022842D021
:103DB000032803D11F21E940CB0703D4BF211F48AB
:103DC000FDF736FE85EA040333F0030303D0C12177
:103DD0001A48FDF72DFE072C12D803214FEA840A5A
:103DE00001FA0AF1164806FA0AF20191FFF7BEFF3E
:103DF00005F003020199134802FA0AF2FFF7B6FF31
:103E00003A4621461048FFF749FF4A4621460F48E7
:103E1000FFF744FF01230E4AA340C2F82034214695
:103E200042460C4802B0BDE8F047FFF737BF7F219C
:103E3000C1E70321BFE73F21BDE700BF04690000E0
:103E400000C4035008C4035010C4035014C40350EA
:103E500000E0035024C40350F8B50D4616461F4633
:103E6000044660B301282CD002282CD0032803D1AB
:103E70001F22EA40D30704D44FF4B0711B48FDF76A
:103E8000D7FD26B129462046FFB1FFF71FFF04EBFF
:103E90004403072D4FF00F014FEA031318D8A80071
:103EA00006FA00F2814012481844FFF75FFFDEB9BE
:103EB00029462046A7B1BDE8F840FFF707BF7F229B
:103EC000D7E70322D5E73F22D3E7FFF727FFDEE757
:103ED000A5F10800800006FA00F281400548E3E7FA
:103EE000BDE8F840FFF71ABFF8BD00BF0469000045
:103EF00004C003500CC00350F8B506460C461546E6
:103F00009ABB40F20F11BDE8F8402F48FDF790BD75
:103F10002E4B9E4201D117203DE040F229112A4844
:103F2000FDF786FD3AE0032F42D0294B3CE06FEAD3
:103F3000C50505442C44B4FBF0F4013C0AD540F21D
:103F400075112148FDF774FD4FF4BB711E48FDF754
:103F50006FFD02E0B4F5007FF6D2B3689B0702D58F
:103F6000002C08BF0124B461F8BD03F00307836887
:103F700023F440738360FFF727FEB26882EA0723C9
:103F800003F440735340B360FFF722FE34B9114B82
:103F90009E42BDD11620FFF75DF90446B3689A072B
:103FA000C1D5032F04D00C4B53F827309C4204D8C2
:103FB0004FF4AF710448FDF73BFD084BD85D6843F3
:103FC000B5D140F26F119EE759690000008006509C
:103FD000BC6900000000015AB0690000C869000017
:103FE00038B50B4B044698420D4607D0094B984212
:103FF00004D040F28F110848FDF71AFD043425B1B2
:1040000004F580540123236038BD04F50054F9E71A
:104010000000015A008006505969000038B5154B60
:10402000044698420D4607D0134B984204D04FF4F3
:10403000D2711248FDF7FCFC0023114A236404F5F9
:104040000053DA636A7804F108037AB903F5805300
:1040500002221A602046D5E901122B7BFFF74CFFA4
:1040600020462978BDE83840FFF7BABF03F5005372
:10407000EEE700BF0000015A0080065059690000B9
:10408000FFFF1F002DE9F843894B98420BD0894B65
:10409000984226D0884840F2FB11FDF7C9FC6FF02A
:1040A0000300BDE8F883854B402505264FF0000846
:1040B0004FF0030C996800F50054C26B12F4C06F06
:1040C00015D097050FD5FD225A7009221A700022CB
:1040D000026493F90110012900D15A7093F901008B
:1040E000DFE7774BE0E75605EFD5FE22ECE71F78D8
:1040F000082F00F2D880DFE817F009001F00410008
:104100004C006900740096009E00CD004C880A881F
:10411000E5060AD5120A02F0060242F0F002012179
:1041200019704263C1600120BBE702F0FE02A107E3
:1041300048BF42F00102F2E7170607D5802100F5DB
:104140000052D1634FF608721A8062E05206EAD537
:104150004A88E563D70604D502221A700B784363B8
:10416000E1E7920765D507221A701B7901EBC301BD
:104170000B89012BD7D10823C360D4E71706DDD400
:104180005206D0D54A88E563970752D583F800C018
:1041900093E74C880A88E50643BF120A02F006023C
:1041A00042F0F00202F0FE02640709D51C7942F0E9
:1041B000010201EBC4010989012904BF0821C16082
:1041C000042119700123C3604263ACE71706B5D41C
:1041D0005706A8D54A88E56352072AD507221A70E0
:1041E000A1E71A795F8801EBC20EBEF80890B945C5
:1041F00011D80132D2B21A714F88A3F8028017F099
:10420000040FC3D1FF0702D4012A7FF656AF08225C
:104210001A700223B0E7DEF80420791C5980D25DC1
:1042200042630622DBE7170688D457067FF57BAF8B
:10423000E5631E7041E794067FF575AF456A214C32
:1042400046691A793440B4F5003F04BF466A4FF41A
:10425000005601EBC20100F500540A8908BFE6636D
:104260002026E6635C88A24281BF4968661C5E80A6
:104270000D5559888A42CAD90424012AC46004D938
:10428000013A914201D10822C2601A78092A3FF40A
:104290001EAF48E7D2057FF546AF4FF4807100F5B9
:1042A0000052D16311E74FF609321A800FE700BFC1
:1042B0000000015A0080065059690000781E002055
:1042C000841E00202000020038B5284B0446984286
:1042D0000D4644D0264B98423ED040F25E312548F0
:1042E000FDF7A6FB002D3DD140F25F312148FDF7DF
:1042F0009FFB1E4B9C4228D11F4B2269D00744BF15
:104300002022E2606A88910701D5298951B35207BA
:1043100001D52A8A32B34FF480721A6000229D6060
:104320001A71C023E3606369DB0513D4202204F50E
:104330000053DA63114A2046DA63236C43F4FC63CA
:104340002364BDE83840FFF79DBE094B9C4209D16C
:104350000B4BD2E7636AE6E70029F9D1C4E70029ED
:10436000CAD1C1E76FF0030038BD00BF0000015A99
:104370000080065059690000781E0020FFFF1F00D2
:10438000841E0020072838B504460D4603DD77213A
:104390000948FDF74DFB1F2C03D991210748FDF774
:1043A00047FB074B074A0120002D18BF134600FAB0
:1043B00004F41C6038BD00BFCC690000B068000088
:1043C000401004504020045010B5044618B9912103
:1043D0001B48FDF72DFB23781B0613F0604F03D01D
:1043E00092211748FDF724FBE3780F2B03D9A32173
:1043F0001348FDF71DFB0122124B5A60227812066A
:104400009A606178A27842EA01429A61FF229A6238
:1044100000229A631A644FF000425A654FF0FF324F
:104420004FF4001103F500531A65074AC2F88011D2
:10443000E3781B01DBB282F81533116010BD00BFB9
:10444000CC6900000000045000E100E02DE9F041DB
:104450000126C3B2072805460C46904606FA03F625
:1044600003DDEC213548FDF7E3FA1CB9ED213348B3
:10447000FDF7DEFA236823F47C1323F00F031BB14E
:10448000F0212E48FDF7D4FAA37A1B0413F47C0F15
:1044900004D040F209112948FDF7CAFAE37A1B0556
:1044A00013F07E6F04D040F20B112448FDF7C0FAE0
:1044B000237B5B0513F0FE5F04D040F20D111F4813
:1044C000FDF7B6FA30201E4A637B166521681D4F42
:1044D00002F5005242F8251000FB05752B66E37AC1
:1044E000A27A1B0543EA0243227B43EA425328F0A7
:1044F0000302EB652A67FFF76EFB7B6D33437B6539
:10450000237A13B13B6C33433B64637A13B1BB6BC7
:104510003343BB632279A37943EA0243084A936198
:104520006179E37943EA014307498B61054B56639F
:104530009E64BDE8F041FFF754BB00BFCC690000AA
:104540000020045000000450001004504FF0B0430D
:104550005A6812B19A6A002AFAD17047022838B50F
:1045600005460C4603D94C210C48FDF761FAE37867
:10457000627821785B0143EA820322790B4343EAA4
:1045800002130C226A4302F1B0421363012902BFF5
:10459000A278034B43F8252038BD00BF216A0000F4
:1045A000D080035008B54FF0B0435A6802B960B1EB
:1045B0005B680BB1FFF7CAFF4FF0B04130B101208B
:1045C000074B5860FFF7C2FFC86008BDFFF7BEFF8A
:1045D0000223CB60FFF7BAFF0122024B5A60F4E7D7
:1045E00000100058002000584FF0B0435B6870B5D1
:1045F0000BB1FFF7ABFF0121104B45785960837871
:104600000679002BC37814BF02240024002B14BFAA
:10461000042200224379DB0043EA06132B432343A1
:1046200013434FF0B0429360054B59600378002B61
:1046300014BF0B460223D36070BD00BF002000589A
:1046400000100058054B5B69C3F38512827003F0BC
:104650003F021B0B42700370704700BF00C0075041
:10466000094B98420DD003F58043984209D003F5D9
:104670008043984205D003F58043C31A58425841FD
:1046800070470120704700BF008004502DE9F041C1
:104690009846194B0E46984215461DD003F58043A7
:1046A00098421BD003F58043984219D003F580430C
:1046B000984217D011488221FDF7BAF94FF0FF3028
:1046C00006210F4CB8F1000F0ED001FB006004EB87
:1046D0008000C561BDE8F0810020F1E70120EFE72F
:1046E0000220EDE70320EBE701FB00602D0204EB65
:1046F0008004E561EEE700BF00800450766A0000A8
:1047000000810350036BDA0702D503695B06F9D415
:104710007047000038B505460C46FFF7A1FF18B9F1
:10472000A5212748FDF784F92846FFF7EBFF012272
:1047300005F500531A63237961881B0243EA81431C
:10474000617A0B436178002914BF402100210B439B
:10475000A17A002914BF802100210B43E17A0029AE
:1047600014BF202100210B43217B002914BF1021FD
:1047700000210B43617B002914BF082100210B435A
:10478000A179002914BF4FF4803100210B436B60E5
:1047900005F580531A6322780AB90223EB600023DF
:1047A0006B62E179237A43EA81036179002914BFBE
:1047B000102100210B43AB600AB10123EB6038BD2F
:1047C000766A0000F8B506460F461446FFF748FF24
:1047D00018B9F5212748FDF72BF9022F03D9F62147
:1047E0002448FDF725F93046FFF78CFF012206F536
:1047F00000531A63E279E57A002A627A14BF4FF413
:1048000080110021002A14BF10220022A37943EA5C
:10481000C5430B43134306EB47152B66237A2BB393
:10482000237B2A6E394642EA43422A66013B18BF7F
:104830000123A278FFF72AFF012306F58056336390
:10484000637822781B0643EA8263E27843EA023304
:10485000227943EA8223627943EA0223A27A002A78
:1048600014BF0422002213436B66F8BD2B6E2B6627
:10487000E2E700BF766A00000D4B984208D1A3F52D
:104880000033C3F88411C36D43F08003C3657047E0
:10489000084B984204D1A3F51033C3F89411F2E702
:1048A000054B984204BFA3F52033C3F8A411EAE7EF
:1048B0000080055000C00550000006502DE9F04171
:1048C00080460E461F46154622B94FF4A171304866
:1048D000FDF7AEF81EB90320FEF7BCFC0646402FDC
:1048E0002AD009D8A7B1202F1CD040F28911BDE8E9
:1048F000F0412748FDF79CB8602FF6D1B5EB960F35
:1049000004D940F283112248FDF792F804241DE0F7
:10491000B5EB161F04D94FF4BA711D48FDF788F89E
:10492000102413E0B5EBD60F04D940F279111848E2
:10493000FDF77EF8082409E00624B6FBF4F3AB4249
:1049400004D24FF4BF711248FDF772F86C4361084E
:1049500001EB4616B6FBF4F40E4E203CB6EBC40F4A
:104960004FEAC40504D24FF4D0710948FDF760F84E
:10497000D8F80830354023F06003C8F80830D8F87C
:1049800008301F43C8F80870C8F81C50BDE8F08113
:10499000CC6A0000F8FF7F002DE9F041DFF870805D
:1049A000064641450F4615461C4604D94FF4EA71A8
:1049B0001648FDF73DF807EA080705BB202C05D08F
:1049C000402C1FD0002C14BF40241024012307F5D5
:1049D00080775F4300233A463046194600F0C4FC16
:1049E000554300FB04F804FB0351A2FB040400231D
:1049F0003A46214400F0B8FC4044BDE8F0818024F0
:104A00000025E3E780240323E1E700BFCC6A000030
:104A1000F8FF7F0070B5044685680320FEF71AFC96
:104A2000A36805F00102E16903F06003BDE870408E
:104A3000FFF7B2BF38B5104B044698420D460CD074
:104A400003F58043984208D003F58043984204D090
:104A50004FF433710948FCF7EBFF012204F5805352
:104A60005A60EB43934003F00A036361656115B933
:104A700004F50054626038BD00800550CC6A000027
:104A80001F4B10B5984204460CD003F58043984262
:104A900008D003F58043984204D040F242411948BF
:104AA000FCF7C6FF012204F580535A6040F6AA6362
:104AB00041F20502636100231349A360E365E260EC
:104AC00004F500522361E361E36491640C49A3653A
:104AD0008C4206D00D48844203D000F580408442C9
:104AE0000BD18C42236506D0084B9C4203D003F5C2
:104AF00080439C4201D1002363650123536010BDB4
:104B000000800550CC6A0000FFFF010000C0055086
:104B1000464B70B5984204460D460CD003F58043D1
:104B2000984208D003F58043984204D040F2FD211A
:104B30003F48FCF77DFF2046FFF7A2FF012304F565
:104B400080567360AB7C1BB1A36843F08043A360C5
:104B5000EB7C1BB12046297DFFF78EFE2A8A6B7BFA
:104B600020461343EA891343E3602B7BD5E9011206
:104B7000FFF7A4FE6B7D1BB1A36843F48033A360F1
:104B8000AB7D1BB1A36843F40043A360EB7D2A7E99
:104B90001B07120502F4E00203F0E0431343A36590
:104BA0006A7E931E012B214B20D89C421AD003F51C
:104BB00080439C4218D003F580439C420CBF0223E3
:104BC0004FF0FF3341F2AC5102205B0103F1A043EF
:104BD00003F570335850032A23D10423F3652B784F
:104BE000636170BD0023EDE70123EBE79C4214D025
:104BF000104B9C4213D003F580439C420CBF022310
:104C00004FF0FF3342F2AC5102205B0103F1A043AD
:104C100003F570335850012ADEE70023F2E7012341
:104C2000F0E7042204F50053DA65D8E70080055068
:104C3000CC6A000000C0055083695B06FCD5C163E7
:104C40007047000013B50024064A6846536F43F0CE
:104C50000103536700948DF80440FFF715F82046D0
:104C600002B010BD0040005008B50248FEF7DEFD5E
:104C7000002008BD00B4C40430B58BB06C46154D9F
:104C80000FCD0FC40FCD0FC495E8030084E80300D7
:104C9000114BD3F84C21120314D4D3F85041E4B291
:104CA0008DF81940FEF716FF204480F308008DF8B8
:104CB00018000A48FCF756FE6846FEF721FE002061
:104CC0000BB030BD064B1C884FF6FF739C4208BFEB
:104CD0008124E5E7246B00000080E00F00F049022A
:104CE0000001E00F30B5094D87B001AC0FCD0FC406
:104CF0002B6801A8236025238DF80530FEF7F0FE10
:104D00006420FEF749FF002007B030BD4C6B000067
:104D10006FF00402502110B50A480B4C12F0800FBE
:104D2000D3B21BBF03F00F03043BA3181B1802F1FF
:104D300001020CBF83F8001319763D2AEED1002042
:104D400010BD00BF00ED00E000E100E000230B70AB
:104D50007047000030B50F4C41612368ABB920604B
:104D6000836011E0891A9A681D4641612AB1134691
:104D70005A698A42F6D955B11A461346A86083602B
:104D800013B15A69511A596130BD0025F0E720600E
:104D9000F5E700BFA81E002010B500F011FA0A4C7C
:104DA0000A4B19682368C31A01B10BB9206010BD02
:104DB0004A699A423ABF9B1A0022D21A4A6128BF16
:104DC00000238968F0E700BF941E0020A81E002081
:104DD00038B5134D2B685B6993B1124A02201468F1
:104DE0001C4400F027FA204600F0F2F900230E4997
:104DF0002A680B70D088800709D501230B7038BD55
:104E0000022000F017FA022000F038FAEEE792686C
:104E1000002AF4D050690344012BEBD9EFE700BF1F
:104E2000A81E0020941E00209C1E002070B516466F
:104E30009DF81420C0E903360271049ABDF81830B9
:104E400002600022C380826004460D4600F0B8F97B
:104E50003044A0613DB9E368656113B12046216823
:104E6000984796B13546FEF7AFFE0646FFF794FF2A
:104E700029462046FFF76EFF054B1B68A34201D170
:104E8000FFF7A6FF3046FEF7A3FE002070BD00BF6F
:104E9000A81E002000220C490B687BB183420AD176
:104EA00083687AB1936083681BB15A6941690A4487
:104EB0005A61002070471A469B68EEE70028EFD041
:104EC000022070470B60EEE7A81E002070B5FEF7C9
:104ED00082FE144E05463478FCB9134B1C60134B0C
:104EE0001C60134B1C8000F02FF9012000F0A2F988
:104EF00000F0E6F90F4B0246186020B92846FEF78D
:104F000070FE232070BD234640F2E7310A4800F0CE
:104F10002BFA0A4B1860012333702846FEF761FE16
:104F20000020EFE7901E0020A81E0020941E002005
:104F30009E1E0020A41E002018FCFFFF981E0020CB
:104F400038B50C46054698B191B100230B70FEF7B9
:104F500042FE0121074B1B680BB122781AB1FEF704
:104F600040FE002038BDAB4214BF9B682170F3E7C0
:104F70002220F7E7A81E0020F0B51F46002387B0C7
:104F80000D46164604468DF81730A0B10DF11701F5
:104F9000FFF7D6FF9DF817207AB9BDF834302946BF
:104FA00002939DF830302046CDE900733346FFF779
:104FB0003DFF07B0F0BD2220FBE70320F9E700002A
:104FC000044B1B6858434FF47A7300F2E730B0FB90
:104FD000F3F07047A41E0020012300B58BB08DF8BC
:104FE0000B30FFF7EDFF00230146CDE90033074A00
:104FF0000DF10B0303A8FFF7BFFF18B99DF80B30A5
:10500000002BFBD10BB05DF804FB00BF4D4D000041
:10501000C2072DE9F84F04460BD5464A13880133E1
:105020009BB21380FFF7B8FE434B1B680BB1FFF731
:10503000CFFEA3077CD5FEF7CEFD4FF0000A054654
:105040005646FFF7A9FED0463B4FDFF8F4903C6888
:105050000CB163698BB10022384B012E1A7003D159
:10506000BAF1020F08BF1E70002C51D0FFF7B0FE3E
:105070002846BDE8F84FFEF7B4BD23461A792179DA
:10508000914288BF1C469B6813B15A69002AF5D02B
:105090002846FEF7A6FDD4F810A0BAF1000F3BD0C9
:1050A00000F08EF8A269851AEB17AA4578EB030386
:1050B00033DA236913440122A3612369D3B1CAB946
:1050C000EB17BAEB050563EB4303002B04DA4FF44F
:1050D00081614846FCF7ACFCFEF77DFD824629461F
:1050E0002046FFF737FEA369226950461344A361A7
:1050F000FEF777FDE368B4F806A0013613B1204649
:1051000021689847FEF767FD0546FFF745FE9EE7D5
:10511000022000F09BF8ABE75546FEF75CFD8346A6
:105120002046FFF7B7FE5846FEF75BFD0022C4E7B6
:10513000BDE8F88F9E1E0020A81E0020A01E0020A3
:10514000606B0000002070471FB50024194B1868E1
:105150009A880290D3F806009B7AADF80C208DF85F
:10516000043000908DF80840FFF7ECFF8DF80C003C
:1051700002A8FFF739FA694601208DF80040FFF7D1
:10518000EDF94FF0B0431F219A6922F01F029A6196
:10519000094A51619A6A12F00802FBD11A62012091
:1051A000FFF700FA4FF48062044BC3F880211A60C5
:1051B00004B010BDC86B00000020005800E100E002
:1051C0004FF0B0439A6A1207FCD4186A7047000087
:1051D00010B50446FEF7F8FC4FF0B042936A190789
:1051E000FCD4136A116C5269120704D4CA1A032A38
:1051F00001D88B420ED1E21A022A98BFDC1CB4F10E
:10520000FF3F38BF013C4FF0B0431C649A6942F045
:1052100008029A61FEF7DCFC054A13783BB14FF0B7
:10522000B041CB6B43F00203CB630023137010BD7E
:10523000CE16002082074FF0B04200F001039169C2
:1052400048BF43F008030B4393617047820700F0A7
:1052500001030AD50121084A43F0080311704FF0F9
:10526000B041CA6B22F00302CA634FF0B0418A69B1
:1052700022EA03038B617047CE160020830742BFEA
:105280000822014B5A6170470010005810B5FEF714
:10529000A2FC4FF0B04304465B691A07074A03F0CB
:1052A000010003F00D0348BF40F002005361FFF717
:1052B000AFFE2046BDE81040FEF793BC002000582A
:1052C00008B51C20FDF7C6FF0346FFF73BFF23FA96
:1052D00000F008BD08B5FCF7A5F9FCF7FBF9FCF7F1
:1052E00008FAFCF70DFABDE80840FCF70ABA08B561
:1052F000FCF708FAFCF707FAFCF706FABDE80840E5
:10530000FCF703BA10B50446FCF710FB4FF47A72B1
:105310009042B0FBF2F105D23621BDE810400C48B6
:10532000FCF786BB0B4BB3FBF1F30B49884201D969
:105330003C21F2E702FB04F0B0FBF3F0022806D9AF
:10534000BDE810400323B0FBF3F000F009B810BD36
:10535000D36B000040420F00E7CD9A3B00000000F5
:10536000013800D0FCE7704753B94AB9002908BF9B
:1053700000281CBF4FF0FF314FF0FF3000F082B922
:10538000ADF1080C6DE904CE00F006F8DDF804E09C
:10539000DDE9022304B070472DE9F04F099D044672
:1053A0000F46002B48D18A42944661D9B2FA82F363
:1053B00043B1C3F120019F4002FA03FC9C4020FA54
:1053C00001F10F434FEA1C411FFA8CFE220CB7FB80
:1053D000F1F601FB167706FB0EF042EA0742904217
:1053E00008D91CEB020206F1FF3702D2904200F20C
:1053F00037813E46121AA4B2B2FBF1F001FB102233
:1054000000FB0EFE44EA0244A64508D91CEB040446
:1054100000F1FF3202D2A64500F21C81104640EA9C
:105420000640A4EB0E0400261DB1DC400023C5E9B4
:1054300000433146BDE8F08F8B4209D9002D00F0C2
:10544000FD800026C5E9000130463146BDE8F08FF9
:10545000B3FA83F6002E4BD18B42C0F0F280824229
:1054600040F2EF803046002DE3D0C5E90047E0E789
:1054700002B9FFDEB2FA82F3002B40F09D80891A58
:105480004FEA124E97B20126200CB1FBFEF20EFB42
:10549000121140EA014107FB02F088420FD91CEBD0
:1054A000010102F1FF382CBF4FF001094FF0000954
:1054B000884203D9B9F1000F00F0CF804246091AA3
:1054C000A4B2B1FBFEF00EFB101100FB07F744EA9B
:1054D0000144A74208D91CEB040400F1FF3102D2B9
:1054E000A74200F2B4800846E41B40EA02409BE772
:1054F000C6F12007B34001FA06F422FA07FCF9408E
:10550000B2404CEA030C20FA07F34FEA1C491C4353
:105510001FFA8CFE00FA06F3200CB1FBF9F809FB28
:10552000181140EA014108FB0EF088420FD91CEB2C
:10553000010108F1FF3A2CBF4FF0010B4FF0000BB7
:10554000884203D9BBF1000F00F08D80D046091AC4
:10555000A4B2B1FBF9F009FB101100FB0EFE44EA06
:1055600001418E4507D91CEB010100F1FF3401D246
:105570008E457FD8204640EA0840A1EB0E01A0FBF3
:10558000029841454C46C64602D306D14B4504D24B
:105590000138B9EB020468EB0C0E002D70D01A1B19
:1055A00061EB0E0122FA06F301FA07F7F14000263B
:1055B0001F43C5E900713CE702FA03FCC3F1200078
:1055C00001FA03F221FA00F64FEA1C4E24FA00F128
:1055D0001FFA8CF79C401143B6FBFEF00A0C0EFB41
:1055E000106642EA064200FB07F696420ED91CEB13
:1055F000020200F1FF382CBF4FF001094FF0000903
:10560000964202D9B9F1000F31D04046921B89B2BF
:10561000B2FBFEF60EFB162241EA024106FB07F240
:105620008A4207D91CEB010106F1FF3801D28A42F8
:1056300023D84646891A46EA004625E72E462846DC
:10564000F7E6841A61EB030301201F460BE764446D
:10565000023849E764440238E1E6023A61442EE741
:10566000023E6244C6E6A8F1020861446FE70238D0
:105670006244CBE7023861447DE7023E6144D9E7EA
:105680002E46D6E6704700BF08B5074B044613B157
:10569000002100E000BF054B1868836A03B19847FA
:1056A000204600F0BFFC00BF00000000346C00008A
:1056B00070B50D4D00260D4C641BA410A64209D1F7
:1056C0000B4D00260B4C00F0AFFC641BA410A6424F
:1056D00005D170BD55F8043B01369847EEE755F803
:1056E000043B01369847F2E73417002034170020B6
:1056F00034170020381700200A44431E914200D17D
:10570000704710B511F8014B914203F8014FF9D1E0
:1057100010BD02440346934200D1704703F8011BB9
:10572000F9E700000EB400B59CB06FF000411DAB6E
:1057300002900690079104910848094953F8042BF8
:10574000059102A90068019300F078F8029B0022FD
:105750001A701CB05DF804EB03B07047D01600203F
:105760000802FFFF034611F8012B03F8012B002A62
:10577000F9D17047034613F8012B002AFBD1181A00
:10578000013870472DE9F0478E6882460C469046F6
:105790009E421F4638D88A8912F4906F32D025680D
:1057A00001330969A5EB0109656905EB45054B4422
:1057B00005EBD5756D109D4238BF1D46530531D59B
:1057C000294600F065FB064650B90C234FF0FF3028
:1057D000CAF80030A38943F04003A381BDE8F087F5
:1057E0004A462169FFF788FFA38923F4906343F0B9
:1057F0008003A38126614E446561A5EB09052660FF
:105800003E46A560BE4200D93E463246414620682B
:1058100000F0B8FAA36800209B1BA3602368334400
:105820002360DBE72A4600F0A7FB06460028E1D10B
:105830002169504600F0C0FAC7E700002DE9F04F9B
:1058400098468B899DB007461B060D4614460ED51B
:105850000B6963B9402100F01BFB2860286120B967
:105860000C233B604FF0FF30D1E040236B610023FD
:10587000CDF80C804FF00109DFF8AC8109932023AB
:105880008DF8293030238DF82A3023469A4613F8B4
:10589000012B0AB1252AF9D1BAEB040B0BD05B46D8
:1058A000224629463846FFF76DFF013000F0AA80F6
:1058B000099A5A4409929AF80030002B00F0A2800D
:1058C00000234FF0FF320AF1010A049307938DF889
:1058D00053301A93CDE9052354460522524814F853
:1058E000011B00F041FA049AD8B9D00644BF202326
:1058F0008DF85330110744BF2B238DF853309AF89D
:1059000000302A2B15D0079A544600204FF00A0C7D
:10591000214611F8013B303B092B4ED9B0B107921B
:1059200014E0A0EB0803A24609FA03F3134304931F
:10593000D2E7039B191D1B68002B0391BBBF5B4281
:1059400042F0020207930793B8BF049223782E2BEC
:105950000CD163782A2B35D1039B02341A1D1B68A6
:10596000002B0392B8BF4FF0FF330593DFF8C8A0B8
:1059700003222178504600F0F7F940B14023A0EB14
:105980000A00013403FA00F0049B0343049314F863
:10599000011B062225488DF8281000F0E5F90028A3
:1059A00038D0234B1BBB039B073323F0070308337B
:1059B0000393099B3344099367E70CFB02320C46BF
:1059C0000120A5E7002301344FF00A0C1946059386
:1059D000204610F8012B303A092A03D9002BC5D0F4
:1059E0000591C3E70CFB012104460123F0E703AB5B
:1059F0002A4604A9384600930E4B00E000BF421C23
:105A00000646D6D1AB895B063FF52CAF09981DB091
:105A1000BDE8F08F03AB2A4604A938460093054B36
:105A200000F07CF8EBE700BF386C0000426C00002F
:105A300000000000855700003E6C00002DE9F04793
:105A4000164699468A6807460B690C46DDF82080A1
:105A50009342B8BF1346336091F843200AB1013333
:105A600033602368990642BF336802333360256888
:105A700015F0060506D104F1190AE36832689B1A8D
:105A8000AB4229DC94F84320131E226818BF01237F
:105A900092062ED404F1430249463846C0470130ED
:105AA00021D023681A3454F80E5C03F006033268E0
:105AB0000026042B54F8123C08BFAD1A54F80A2CE7
:105AC00014BF002525EAE5759342C4BF9B1AED1863
:105AD000B5421AD1002008E0012352464946384613
